:020000040000FA
:0600000061EF21F0120087
:020006001200E6
:08000800F2A402D0F6EF1AF099
:100010009EA002D079EF1BF09EAA02D06FEF11F0E4
:0A0020001200D08EF28EF28C120056
:06002A0007007A47000008
:10003000FC0200000200000079470000F700000009
:10004000010000005D4700001B0100001C000000D3
:1000500042470000000100001B000000B6460000FF
:10006000600000008C000000FB4300000003000063
:10007000BB020000FF42000000020000FC00000084
:10008000D9CFE6FFE1CFD9FFE652FE0EDBCFE6FF88
:10009000010EF36EFD0EDB5004E0D890F336E80657
:1000A000FCE1F350E552E71402E0010E01D0000E2E
:1000B000DF6EDF5000D0E552E552E7CFD9FF1200E6
:1000C000D9CFE6FFE1CFD9FF010EF36EFC0EDB5076
:1000D00004E0D890F336E806FCE1F350106EFD0E14
:1000E000DBCFE9FFFE0EDBCFEAFF1050EF12E55247
:1000F000E7CFD9FF1200D9CFE6FFE1CFD9FF010E3C
:10010000F36EFC0EDB5004E0D890F336E806FCE119
:10011000F350E81C106EFD0EDBCFE9FFFE0EDBCFC7
:10012000EAFF1050EF16E552E7CFD9FF1200D9CF02
:10013000E6FFE1CFD9FF030EE126DF6A020EDF5CA6
:1001400001E3A5D1DF28E66EDF50E96EEA6A5D0EB5
:10015000EA02F3CFEAFFE950EA265D0EE902F3CFA7
:10016000E9FFF450EA26000EE926030EEA22E552E2
:10017000E750EF6EDF50E96EEA6A5D0EEA02F3CFF8
:10018000EAFFE950EA265D0EE902F3CFE9FFF450F9
:10019000EA26000EE926030EEA22EE52EF6ADF504D
:1001A000E96EEA6A5D0EEA02F3CFEAFFE950EA2659
:1001B0005D0EE902F3CFE9FFF450EA26000EE926CE
:1001C000030EEA22030EE926000EEA22EE6AED6A29
:1001D000DF50E96EEA6A5D0EEA02F3CFEAFFE9500A
:1001E000EA265D0EE902F3CFE9FFF450EA26000E9D
:1001F000E926030EEA22050EE926000EEA22EF6A3E
:10020000DF50E96EEA6A5D0EEA02F3CFEAFFE950D9
:10021000EA265D0EE902F3CFE9FFF450EA26000E6C
:10022000E926030EEA22060EE926000EEA22EF6A0C
:10023000DF50E96EEA6A5D0EEA02F3CFEAFFE950A9
:10024000EA265D0EE902F3CFE9FFF450EA26000E3C
:10025000E926030EEA22090EE926000EEA22EF6AD9
:10026000DF50E96EEA6A5D0EEA02F3CFEAFFE95079
:10027000EA265D0EE902F3CFE9FFF450EA26000E0C
:10028000E926030EEA220A0EE926000EEA22EF6AA8
:10029000DF50E96EEA6A5D0EEA02F3CFEAFFE95049
:1002A000EA265D0EE902F3CFE9FFF450EA26000EDC
:1002B000E926030EEA22070EE926000EEA22EF6A7B
:1002C000DF50E96EEA6A5D0EEA02F3CFEAFFE95019
:1002D000EA265D0EE902F3CFE9FFF450EA26000EAC
:1002E000E926030EEA220B0EE926000EEA22EF6A47
:1002F000DF50E96EEA6A5D0EEA02F3CFEAFFE950E9
:10030000EA265D0EE902F3CFE9FFF450EA26000E7B
:10031000E926030EEA220C0EE926000EEA22EF6A15
:10032000DF50E96EEA6A5D0EEA02F3CFEAFFE950B8
:10033000EA265D0EE902F3CFE9FFF450EA26000E4B
:10034000E926030EEA22080EE926000EEA22EF6AE9
:10035000DF50E96EEA6A5D0EEA02F3CFEAFFE95088
:10036000EA265D0EE902F3CFE9FFF450EA26000E1B
:10037000E926030EEA22020EE926000EEA22EF6ABF
:10038000DE52700EDD6E010EDBCFE6FFE66AE66A36
:10039000DF50E96EEA6A5D0EEA02F3CFEAFFE95048
:1003A000EA265D0EE902F3CFE9FFF450EA26000EDB
:1003B000E926030EEA22ED0EE926000EEA22E9CF35
:1003C00010F0EACF11F010C0E6FF11C0E6FFE4EC38
:1003D0001EF0126E050EE15E1250010EDBCFE6FF3D
:1003E000E66AE66ADF50E96EEA6A5D0EEA02F3CF7A
:1003F000EAFFE950EA265D0EE902F3CFE9FFF45087
:10040000EA26000EE926030EEA220D0EE926000E6A
:10041000EA22E9CF10F0EACF11F010C0E6FF11C0D8
:10042000E6FFE4EC1EF0126E050EE15E1250010EC6
:10043000DBCFE6FFE66AE66ADF50E96EEA6A5D0E48
:10044000EA02F3CFEAFFE950EA265D0EE902F3CFB4
:10045000E9FFF450EA26000EE926030EEA220D0E0B
:10046000E926000EEA22E9CF10F0EACF11F0700E73
:100470001026000E112210C0E6FF11C0E6FFE4ECCA
:100480001EF0126E050EE15E1250DF2A57D6030EE3
:10049000E15C02E2E16AE552E16EE552E7CFD9FFA5
:1004A0001200D9CFE6FFE1CFD9FF070EE126020EF9
:1004B000F36EFE0EDBCFF4FFF350F45C1EE2FC0E95
:1004C000DBCFE9FFFD0EDBCFEAFFEF50106E116AC4
:1004D000D890115004E6800E105C000E11580DE209
:1004E000FC0EDBCFE9FFFD0EDBCFEAFF020EE926B3
:1004F000000EEA22EE50ED1003E1000E99EF07F036
:10050000FE0EDB50E96EEA6A5D0EEA02F3CFEAFF07
:10051000E950EA265D0EE902F3CFE9FFF450EA263E
:10052000000EE926030EEA22EE52E9CF10F0EACFE0
:1005300011F0050E10C0DBFF060E11C0DBFFFC0E34
:10054000DBCFE9FFFD0EDBCFEAFFEECF10F0EECF01
:1005500011F0EECF12F0EECF13F0EECF14F0EFCF9C
:1005600015F0050EDBCFE9FF060EDBCFEAFF10C06A
:10057000EEFF11C0EEFF12C0EEFF13C0EEFF14C07D
:10058000EEFF15C0EEFFFE0EDB50E96EEA6A5D0E6F
:10059000EA02F3CFEAFFE950EA265D0EE902F3CF63
:1005A000E9FFF450EA26000EE926030EEA22060EC1
:1005B000E926000EEA22EF50E66EFE0EDB50E96EF1
:1005C000EA6A5D0EEA02F3CFEAFFE950EA265D0E21
:1005D000E902F3CFE9FFF450EA26000EE926030E04
:1005E000EA22070EE926000EEA22E552E750EF6EF6
:1005F000700EDF6EDFCFE6FFE66AE66AFE0EDB50C6
:10060000E96EEA6A5D0EEA02F3CFEAFFE950EA26F4
:100610005D0EE902F3CFE9FFF450EA26000EE92669
:10062000030EEA22ED0EE926000EEA22E9CF10F0D1
:10063000EACF11F010C0E6FF11C0E6FFE4EC1EF0B7
:10064000126E050EE15E1250DFCFE6FFE66AE66A43
:10065000FE0EDB50E96EEA6A5D0EEA02F3CFEAFFB6
:10066000E950EA265D0EE902F3CFE9FFF450EA26ED
:10067000000EE926030EEA220D0EE926000EEA22FC
:10068000E9CF10F0EACF11F010C0E6FF11C0E6FF8D
:10069000E4EC1EF0126E050EE15E1250DFCFE6FFB5
:1006A000E66AE66AFE0EDB50E96EEA6A5D0EEA0271
:1006B000F3CFEAFFE950EA265D0EE902F3CFE9FF46
:1006C000F450EA26000EE926030EEA220D0EE92672
:1006D000000EEA22E9CF10F0EACF11F0700E1026DA
:1006E000000E112210C0E6FF11C0E6FFE4EC1EF080
:1006F000126E050EE15E1250FE0EDB50E96EEA6AE4
:100700005D0EEA02F3CFEAFFE950EA265D0EE90248
:10071000F3CFE9FFF450EA26000EE926030EEA22A1
:10072000060EE926000EEA22EF5001E0F4D1FE0E9B
:10073000DB50E96EEA6A5D0EEA02F3CFEAFFE950A8
:10074000EA265D0EE902F3CFE9FFF450EA26000E37
:10075000E926030EEA22080EE926000EEA22EF6AD5
:10076000DF6AFE0EDB50E96EEA6A5D0EEA02F3CF45
:10077000EAFFE950EA265D0EE902F3CFE9FFF45003
:10078000EA26000EE926030EEA22020EE926000EF2
:10079000EA22EF50DF5C01E3BDD1FE0EDB50E96ED3
:1007A000EA6A5D0EEA02F3CFEAFFE950EA265D0E3F
:1007B000E902F3CFE9FFF450EA26000EE926030E22
:1007C000EA22080EE926000EEA22EF50EF2A106E08
:1007D000116AFE0EDB50E96EEA6A5D0EEA02F3CFA3
:1007E000EAFFE950EA265D0EE902F3CFE9FFF45093
:1007F000EA26000EE926030EEA22030EE926000E81
:10080000EA221050EE24E76E1150EE20EA6EE7CF98
:10081000E9FFEF50E00FE76E040EE7CFDBFF040EB9
:10082000DBCF10F010340EE2040EDBCF11F0630EBC
:10083000E76E1118E8AE02D0113403D0E750D8802B
:10084000115402E2040EDB6AFE0EDB50E96EEA6A26
:100850005D0EEA02F3CFEAFFE950EA265D0EE902F7
:10086000F3CFE9FFF450EA26000EE926030EEA2250
:10087000080EE926000EEA22EFCF10F0FE0EDB5044
:10088000E96EEA6A5D0EEA02F3CFEAFFE950EA2672
:100890005D0EE902F3CFE9FFF450EA26000EE926E7
:1008A000030EEA22050EE926000EEA22EF50105C44
:1008B00019E3FE0EDB50E96EEA6A5D0EEA02F3CF41
:1008C000EAFFE950EA265D0EE902F3CFE9FFF450B2
:1008D000EA26000EE926030EEA22080EE926000E9B
:1008E000EA22EF6A010EDB6A070EF36E010EDBCF20
:1008F000F4FFF350F45C01E30BD1040EDBCF14F0F2
:10090000156A14BE1568030ED89014361536E8061D
:10091000FBE1340E1426320E1522010EDB500F01BE
:100920001424F66E000E1520F76E0800F550E66EE2
:10093000FE0EDB50E96EEA6A5D0EEA02F3CFEAFFD3
:10094000E950EA265D0EE902F3CFE9FFF450EA260A
:10095000000EE926030EEA22ED0EE926000EEA2239
:10096000E9CF12F0EACF13F0010EDB50100D125058
:10097000F324106E1350F420116EDF500F01102479
:10098000E96E000E1120EA6EE552E750EF6EFE0EA2
:10099000DB50E96EEA6A5D0EEA02F3CFEAFFE95046
:1009A000EA265D0EE902F3CFE9FFF450EA26000ED5
:1009B000E926030EEA22ED0EE926000EEA22E9CF2F
:1009C00016F0EACF17F0010EDB50100D1650F3248D
:1009D000146E1750F420156EDF500F011424E96EC9
:1009E000000E1520EA6EEF50E66EFE0EDB50E96E4B
:1009F000EA6A5D0EEA02F3CFEAFFE950EA265D0EED
:100A0000E902F3CFE9FFF450EA26000EE926030ECF
:100A1000EA220D0EE926000EEA22E9CF12F0EACF13
:100A200013F0010EDB50100D1250F324106E135012
:100A3000F420116EDF500F011024E96E000E11201A
:100A4000EA6EE552E750EF6EFE0EDB50E96EEA6AA1
:100A50005D0EEA02F3CFEAFFE950EA265D0EE902F5
:100A6000F3CFE9FFF450EA26000EE926030EEA224E
:100A7000ED0EE926000EEA22E9CF16F0EACF17F0D4
:100A8000010EDB50100D1650F324146E1750F42095
:100A9000156EDF500F011424E96E000E1520EA6E6A
:100AA000EF50E66EFE0EDB50E96EEA6A5D0EEA027A
:100AB000F3CFEAFFE950EA265D0EE902F3CFE9FF42
:100AC000F450EA26000EE926030EEA220D0EE9266E
:100AD000000EEA22E9CF12F0EACF13F0700E1226D0
:100AE000000E1322010EDB50100D1250F324106E75
:100AF0001350F420116EDF500F011024E96E000E28
:100B00001120EA6EE552E750EF6E010EDB2AECD6BB
:100B1000DF2A27D6F3D1FE0EDB50E96EEA6A5D0EBE
:100B2000EA02F3CFEAFFE950EA265D0EE902F3CFCD
:100B3000E9FFF450EA26000EE926030EEA22080E29
:100B4000E926000EEA22EF6ADF6AFE0EDB50E96E4C
:100B5000EA6A5D0EEA02F3CFEAFFE950EA265D0E8B
:100B6000E902F3CFE9FFF450EA26000EE926030E6E
:100B7000EA22020EE926000EEA22EF50DF5C01E3D2
:100B8000BDD1FE0EDB50E96EEA6A5D0EEA02F3CFDC
:100B9000EAFFE950EA265D0EE902F3CFE9FFF450DF
:100BA000EA26000EE926030EEA22080EE926000EC8
:100BB000EA22EF50EF2A106E116AFE0EDB50E96E4A
:100BC000EA6A5D0EEA02F3CFEAFFE950EA265D0E1B
:100BD000E902F3CFE9FFF450EA26000EE926030EFE
:100BE000EA22030EE926000EEA221050EE24E76EF8
:100BF0001150EE20EA6EE7CFE9FFEF50E00FE76E0D
:100C0000040EE7CFDBFF040EDBCF10F010340EE252
:100C1000040EDBCF11F0630EE76E1118E8AE02D0C0
:100C2000113403D0E750D880115402E2040EDB6A7D
:100C3000FE0EDB50E96EEA6A5D0EEA02F3CFEAFFD0
:100C4000E950EA265D0EE902F3CFE9FFF450EA2607
:100C5000000EE926030EEA22080EE926000EEA221B
:100C6000EFCF10F0FE0EDB50E96EEA6A5D0EEA028D
:100C7000F3CFEAFFE950EA265D0EE902F3CFE9FF80
:100C8000F450EA26000EE926030EEA22050EE926B4
:100C9000000EEA22EF50105C19E3FE0EDB50E96E05
:100CA000EA6A5D0EEA02F3CFEAFFE950EA265D0E3A
:100CB000E902F3CFE9FFF450EA26000EE926030E1D
:100CC000EA22080EE926000EEA22EF6A010EDB6A2C
:100CD000070EF36E010EDBCFF4FFF350F45C01E37B
:100CE0000BD1040EDBCF14F0156A14BE1568030E89
:100CF000D89014361536E806FBE1340E1426320E71
:100D00001522010EDB500F011424F66E000E152083
:100D1000F76E0800F550E66EFE0EDB50E96EEA6AEB
:100D20005D0EEA02F3CFEAFFE950EA265D0EE90222
:100D3000F3CFE9FFF450EA26000EE926030EEA227B
:100D4000ED0EE926000EEA22E9CF12F0EACF13F009
:100D5000010EDB50100D1250F324106E1350F420CE
:100D6000116EDF500F011024E96E000E1120EA6EA3
:100D7000E552E750EF6EFE0EDB50E96EEA6A5D0E5B
:100D8000EA02F3CFEAFFE950EA265D0EE902F3CF6B
:100D9000E9FFF450EA26000EE926030EEA22ED0EE2
:100DA000E926000EEA22E9CF16F0EACF17F0010E8D
:100DB000DB50100D1650F324146E1750F420156EEE
:100DC000DF500F011424E96E000E1520EA6EEF507B
:100DD000E66EFE0EDB50E96EEA6A5D0EEA02F3CFC4
:100DE000EAFFE950EA265D0EE902F3CFE9FFF4508D
:100DF000EA26000EE926030EEA220D0EE926000E71
:100E0000EA22E9CF12F0EACF13F0010EDB50100D09
:100E10001250F324106E1350F420116EDF500F01A6
:100E20001024E96E000E1120EA6EE552E750EF6ED5
:100E3000FE0EDB50E96EEA6A5D0EEA02F3CFEAFFCE
:100E4000E950EA265D0EE902F3CFE9FFF450EA2605
:100E5000000EE926030EEA22ED0EE926000EEA2234
:100E6000E9CF16F0EACF17F0010EDB50100D165047
:100E7000F324146E1750F420156EDF500F01142464
:100E8000E96E000E1520EA6EEF50E66EFE0EDB50A6
:100E9000E96EEA6A5D0EEA02F3CFEAFFE950EA265C
:100EA0005D0EE902F3CFE9FFF450EA26000EE926D1
:100EB000030EEA220D0EE926000EEA22E9CF12F017
:100EC000EACF13F0700E1226000E1322010EDB5033
:100ED000100D1250F324106E1350F420116EDF50D9
:100EE0000F011024E96E000E1120EA6EE552E75062
:100EF000EF6E010EDB2AECD6DF2A27D6FE0EDB5082
:100F0000E96EEA6A5D0EEA02F3CFEAFFE950EA26EB
:100F10005D0EE902F3CFE9FFF450EA26000EE92660
:100F2000030EEA22080EE926000EEA22EF6A010EFD
:100F300000D0106E070EE15C02E2E16AE552E16E5C
:100F40001050E552E7CFD9FF1200D9CFE6FFE1CF2D
:100F5000D9FFFE0EDB50E96EEA6A5D0EEA02F3CFBE
:100F6000EAFFE950EA265D0EE902F3CFE9FFF4500B
:100F7000EA26000EE926030EEA22060EE926000EF6
:100F8000EA22FD0EDBCFEFFFFE0EDB50E96EEA6AD0
:100F90005D0EEA02F3CFEAFFE950EA265D0EE902B0
:100FA000F3CFE9FFF450EA26000EE926030EEA2209
:100FB000070EE926000EEA22FD0EDBCFEFFFE55219
:100FC000E7CFD9FF1200D9CFE6FFE1CFD9FF020E5C
:100FD000E126FD0EDB50106E116AFE0EDB50E96E4D
:100FE000EA6A5D0EEA02F3CFEAFFE950EA265D0EF7
:100FF000E902F3CFE9FFF450EA26000EE926030EDA
:10100000EA22030EE926000EEA221050EE24E76ED3
:101010001150EE20EA6EE7CFE9FFEF50E00FE76EE8
:10102000010EE7CFDBFFDF6A070EDF5C01E3D0D004
:10103000010EDB50080DF3CF14F0F4CF15F0340E91
:101040001426320E1522DF500F011424F66E000E06
:101050001520F76E0800F550E66EFE0EDB50E96EC7
:10106000EA6A5D0EEA02F3CFEAFFE950EA265D0E76
:10107000E902F3CFE9FFF450EA26000EE926030E59
:10108000EA22ED0EE926000EEA22E9CF12F0EACFBD
:1010900013F0DF50100D1250F324106E1350F42093
:1010A000116EFD0EDB500F011024E96E000E1120B1
:1010B000EA6EE552E750EF6EDF50100DF3CF14F0FB
:1010C000F4CF15F0ED0E1426030E1522FD0EDB50A5
:1010D0000F011424E96E000E1520EA6EEF50E66E43
:1010E000FE0EDB50E96EEA6A5D0EEA02F3CFEAFF1C
:1010F000E950EA265D0EE902F3CFE9FFF450EA2653
:10110000000EE926030EEA220D0EE926000EEA2261
:10111000E9CF12F0EACF13F0DF50100D1250F32494
:10112000106E1350F420116EFD0EDB500F011024D1
:10113000E96E000E1120EA6EE552E750EF6EDF50C7
:10114000100DF3CF14F0F4CF15F0ED0E1426030EAE
:101150001522FD0EDB500F011424E96E000E152040
:10116000EA6EEF50E66EFE0EDB50E96EEA6A5D0E47
:10117000EA02F3CFEAFFE950EA265D0EE902F3CF77
:10118000E9FFF450EA26000EE926030EEA220D0ECE
:10119000E926000EEA22E9CF12F0EACF13F0700E32
:1011A0001226000E1322DF50100D1250F324106E81
:1011B0001350F420116EFD0EDB500F011024E96E68
:1011C000000E1120EA6EE552E750EF6EDF2A2CD7B1
:1011D000020EE15C02E2E16AE552E16EE552E7CF20
:1011E000D9FF1200D9CFE6FFE1CFD9FFE652FE0EBC
:1011F000DB50E96EEA6A5D0EEA02F3CFEAFFE950DE
:10120000EA265D0EE902F3CFE9FFF450EA26000E6C
:10121000E926030EEA22EE52EF6AFE0EDB50E96E7B
:10122000EA6A5D0EEA02F3CFEAFFE950EA265D0EB4
:10123000E902F3CFE9FFF450EA26000EE926030E97
:10124000EA22030EE926000EEA22EE6AED6AFE0E9D
:10125000DB50E96EEA6A5D0EEA02F3CFEAFFE9507D
:10126000EA265D0EE902F3CFE9FFF450EA26000E0C
:10127000E926030EEA22050EE926000EEA22EF6AAD
:10128000FE0EDB50E96EEA6A5D0EEA02F3CFEAFF7A
:10129000E950EA265D0EE902F3CFE9FFF450EA26B1
:1012A000000EE926030EEA22060EE926000EEA22C7
:1012B000EF6AFE0EDB50E96EEA6A5D0EEA02F3CFDA
:1012C000EAFFE950EA265D0EE902F3CFE9FFF450A8
:1012D000EA26000EE926030EEA22090EE926000E90
:1012E000EA22EF6AFE0EDB50E96EEA6A5D0EEA0260
:1012F000F3CFEAFFE950EA265D0EE902F3CFE9FFFA
:10130000F450EA26000EE926030EEA220A0EE92628
:10131000000EEA22EF6AFE0EDB50E96EEA6A5D0E0D
:10132000EA02F3CFEAFFE950EA265D0EE902F3CFC5
:10133000E9FFF450EA26000EE926030EEA22070E22
:10134000E926000EEA22EF6AFE0EDB50E96EEA6A39
:101350005D0EEA02F3CFEAFFE950EA265D0EE902EC
:10136000F3CFE9FFF450EA26000EE926030EEA2245
:101370000B0EE926000EEA22EF6AFE0EDB50E96E44
:10138000EA6A5D0EEA02F3CFEAFFE950EA265D0E53
:10139000E902F3CFE9FFF450EA26000EE926030E36
:1013A000EA220C0EE926000EEA22EF6AFE0EDB505E
:1013B000E96EEA6A5D0EEA02F3CFEAFFE950EA2637
:1013C0005D0EE902F3CFE9FFF450EA26000EE926AC
:1013D000030EEA22080EE926000EEA22EF6AFE0E4C
:1013E000DB50E96EEA6A5D0EEA02F3CFEAFFE950EC
:1013F000EA265D0EE902F3CFE9FFF450EA26000E7B
:10140000E926030EEA22020EE926000EEA22EF6A1E
:10141000700EDF6EDFCFE6FFE66AE66AFE0EDB5097
:10142000E96EEA6A5D0EEA02F3CFEAFFE950EA26C6
:101430005D0EE902F3CFE9FFF450EA26000EE9263B
:10144000030EEA22ED0EE926000EEA22E9CF10F0A3
:10145000EACF11F010C0E6FF11C0E6FFE4EC1EF089
:10146000126E050EE15E1250DFCFE6FFE66AE66A15
:10147000FE0EDB50E96EEA6A5D0EEA02F3CFEAFF88
:10148000E950EA265D0EE902F3CFE9FFF450EA26BF
:10149000000EE926030EEA220D0EE926000EEA22CE
:1014A000E9CF10F0EACF11F010C0E6FF11C0E6FF5F
:1014B000E4EC1EF0126E050EE15E1250DFCFE6FF87
:1014C000E66AE66AFE0EDB50E96EEA6A5D0EEA0243
:1014D000F3CFEAFFE950EA265D0EE902F3CFE9FF18
:1014E000F450EA26000EE926030EEA220D0EE92644
:1014F000000EEA22E9CF10F0EACF11F0700E1026AC
:10150000000E112210C0E6FF11C0E6FFE4EC1EF051
:10151000126E050EE15E1250E552E552E7CFD9FF9B
:101520001200D9CFE6FFE1CFD9FF050EE126DF6A31
:10153000020EDF5C02E39AEF0FF0DF50E96EEA6A19
:101540005D0EEA02F3CFEAFFE950EA265D0EE902FA
:10155000F3CFE9FFF450EA26000EE926030EEA2253
:10156000060EE926000EEA22EF5034E0DF50E96E65
:10157000EA6A5D0EEA02F3CFEAFFE950EA265D0E61
:10158000E902F3CFE9FFF450EA26000EE926030E44
:10159000EA22070EE926000EEA22EF06DF50E96E86
:1015A000EA6A5D0EEA02F3CFEAFFE950EA265D0E31
:1015B000E902F3CFE9FFF450EA26000EE926030E14
:1015C000EA22070EE926000EEA22EF50000802E2A6
:1015D00097EF0FF0DF50E96EEA6A5D0EEA02F3CF93
:1015E000EAFFE950EA265D0EE902F3CFE9FFF45085
:1015F000EA26000EE926030EEA22060EE926000E70
:10160000EA22EF50E66EDF50E96EEA6A5D0EEA020A
:10161000F3CFEAFFE950EA265D0EE902F3CFE9FFD6
:10162000F450EA26000EE926030EEA22070EE92608
:10163000000EEA22E552E750EF6E9D90DF50E96E12
:10164000EA6A5D0EEA02F3CFEAFFE950EA265D0E90
:10165000E902F3CFE9FFF450EA26000EE926030E73
:10166000EA22090EE926000EEA22EF5037E1DF50A8
:10167000E96EEA6A5D0EEA02F3CFEAFFE950EA2674
:101680005D0EE902F3CFE9FFF450EA26000EE926E9
:10169000030EEA220C0EE926000EEA22EF5002E1C8
:1016A000010E01D0000EE66EDF50E96EEA6A5D0EB3
:1016B000EA02F3CFEAFFE950EA265D0EE902F3CF32
:1016C000E9FFF450EA26000EE926030EEA220B0E8B
:1016D000E926000EEA22E552E750EF6EDF50E96E90
:1016E000EA6A5D0EEA02F3CFEAFFE950EA265D0EF0
:1016F000E902F3CFE9FFF450EA26000EE926030ED3
:10170000EA22090EE926000EEA22EF0403E19D8099
:1017100097EF0FF09D80DF50E96EEA6A5D0EEA02F6
:10172000F3CFEAFFE950EA265D0EE902F3CFE9FFC5
:10173000F450EA26000EE926030EEA22060EE926F8
:10174000000EEA22EF5001E1D7D3010EDB6A070E4B
:10175000F36E010EDBCFF4FFF350F45C01E31CD316
:10176000010EF36E020EF3CFDBFFDF50E96EEA6A83
:101770005D0EEA02F3CFEAFFE950EA265D0EE902C8
:10178000F3CFE9FFF450EA26000EE926030EEA2221
:10179000020EE926000EEA22EF50F36E020EDBCFB6
:1017A000F4FFF350F45C01E352D1DF50E96EEA6AD2
:1017B0005D0EEA02F3CFEAFFE950EA265D0EE90288
:1017C000F3CFE9FFF450EA26000EE926030EEA22E1
:1017D000ED0EE926000EEA22E9CF12F0EACF13F06F
:1017E000010EDB50100D1250F324106E1350F42034
:1017F000116E020EDB040F011024E96E000E1120A1
:10180000EA6EEF9EEF46070EE66EDF50E96EEA6A7B
:101810005D0EEA02F3CFEAFFE950EA265D0EE90227
:10182000F3CFE9FFF450EA26000EE926030EEA2280
:10183000ED0EE926000EEA22E9CF12F0EACF13F00E
:10184000010EDB50100D1250F324106E1350F420D3
:10185000116E020EDB500F011024E96E000E1120F4
:10186000EA6EEF50E66E40EC00F0E552E5520108FA
:1018700038E1020EE66EDF50E96EEA6A5D0EEA02BA
:10188000F3CFEAFFE950EA265D0EE902F3CFE9FF64
:10189000F450EA26000EE926030EEA22ED0EE926B0
:1018A000000EEA22E9CF14F0EACF15F0010EDB506A
:1018B000100D1450F324126E1550F420136E020E06
:1018C000DB0400011224106E000E1320116E10C0F4
:1018D000E6FF11C0E6FF60EC00F0E552E552E5528C
:1018E00037D0020EE66EDF50E96EEA6A5D0EEA025C
:1018F000F3CFEAFFE950EA265D0EE902F3CFE9FFF4
:10190000F450EA26000EE926030EEA22ED0EE9263F
:10191000000EEA22E9CF14F0EACF15F0010EDB50F9
:10192000100D1450F324126E1550F420136E020E95
:10193000DB0400011224106E000E1320116E10C083
:10194000E6FF11C0E6FF7BEC00F0E552E552E55200
:10195000DF50E96EEA6A5D0EEA02F3CFEAFFE95072
:10196000EA265D0EE902F3CFE9FFF450EA26000E05
:10197000E926030EEA22ED0EE926000EEA22E9CF5F
:1019800018F0EACF19F0010EDB50100D1850F324B7
:10199000166E1950F420176E020EDB040F01162488
:1019A000E96E000E1720EA6EEF50E66EDF50E96E2A
:1019B000EA6A5D0EEA02F3CFEAFFE950EA265D0E1D
:1019C000E902F3CFE9FFF450EA26000EE926030E00
:1019D000EA220D0EE926000EEA22E9CF14F0EACF42
:1019E00015F0DF50E96EEA6A5D0EEA02F3CFEAFF16
:1019F000E950EA265D0EE902F3CFE9FFF450EA264A
:101A0000000EE926030EEA220B0EE926000EEA225A
:101A1000EF50700D1450F324126E1550F420136E15
:101A2000010EDB50100D1250F324106E1350F420F1
:101A3000116E020EDB040F011024E96E000E11205E
:101A4000EA6EE552E750EF6E020EDB2A8ED6DF50CB
:101A5000E96EEA6A5D0EEA02F3CFEAFFE950EA2690
:101A60005D0EE902F3CFE9FFF450EA26000EE92605
:101A7000030EEA22ED0EE926000EEA22E9CF12F06B
:101A8000EACF13F0010EDB50100D1250F324106E4C
:101A90001350F420116E020EDB040F011024E96EC6
:101AA000000E1120EA6EEF9EEF46DF50E96EEA6A03
:101AB0005D0EEA02F3CFEAFFE950EA265D0EE90285
:101AC000F3CFE9FFF450EA26000EE926030EEA22DE
:101AD000080EE926000EEA22EF50106E116ADF5060
:101AE000E96EEA6A5D0EEA02F3CFEAFFE950EA2600
:101AF0005D0EE902F3CFE9FFF450EA26000EE92675
:101B0000030EEA22030EE926000EEA221050EE240C
:101B1000E76E1150EE20EA6EE7CFE9FFEF50E00FDD
:101B2000E76E030EE7CFDBFF000EF36E030EDBCF95
:101B3000F4FFF350F45C04E3030EDB50630802E2AD
:101B4000030EDB6A030EDB50080DF3CF10F0F4CF69
:101B500011F0340E1026320E1122010EDB500F014F
:101B60001024F66E000E1120F76E0800040EF5CF5B
:101B7000DBFF070E106EDF50E96EEA6A5D0EEA02C7
:101B8000F3CFEAFFE950EA265D0EE902F3CFE9FF61
:101B9000F450EA26000EE926030EEA220A0EE92690
:101BA000000EEA22EF50105CE66E040EDBCFE6FF7B
:101BB00040EC00F0E552E552010838E1020EE66E15
:101BC000DF50E96EEA6A5D0EEA02F3CFEAFFE95000
:101BD000EA265D0EE902F3CFE9FFF450EA26000E93
:101BE000E926030EEA22ED0EE926000EEA22E9CFED
:101BF00014F0EACF15F0010EDB50100D1450F32451
:101C0000126E1550F420136E020EDB040001122434
:101C1000106E000E1320116E10C0E6FF11C0E6FF1B
:101C200060EC00F0E552E552E55237D0020EE66E68
:101C3000DF50E96EEA6A5D0EEA02F3CFEAFFE9508F
:101C4000EA265D0EE902F3CFE9FFF450EA26000E22
:101C5000E926030EEA22ED0EE926000EEA22E9CF7C
:101C600014F0EACF15F0010EDB50100D1450F324E0
:101C7000126E1550F420136E020EDB0400011224C4
:101C8000106E000E1320116E10C0E6FF11C0E6FFAB
:101C90007BEC00F0E552E552E552DF50E96EEA6A6E
:101CA0005D0EEA02F3CFEAFFE950EA265D0EE90293
:101CB000F3CFE9FFF450EA26000EE926030EEA22EC
:101CC000ED0EE926000EEA22E9CF18F0EACF19F06E
:101CD000010EDB50100D1850F324166E1950F4202D
:101CE000176E020EDB040F011624E96E000E17209A
:101CF000EA6EEF50E66EDF50E96EEA6A5D0EEA02C8
:101D0000F3CFEAFFE950EA265D0EE902F3CFE9FFDF
:101D1000F450EA26000EE926030EEA220D0EE9260B
:101D2000000EEA22E9CF14F0EACF15F0DF50E96E99
:101D3000EA6A5D0EEA02F3CFEAFFE950EA265D0E99
:101D4000E902F3CFE9FFF450EA26000EE926030E7C
:101D5000EA220B0EE926000EEA22EF50700D145015
:101D6000F324126E1550F420136E010EDB50100D8B
:101D70001250F324106E1350F420116E020EDB0487
:101D80000F011024E96E000E1120EA6EE552E750B3
:101D9000EF6E010EDB2ADBD4DF50E96EEA6A5D0EDE
:101DA000EA02F3CFEAFFE950EA265D0EE902F3CF3B
:101DB000E9FFF450EA26000EE926030EEA220A0E95
:101DC000E926000EEA22EF2ADF50E96EEA6A5D0E8C
:101DD000EA02F3CFEAFFE950EA265D0EE902F3CF0B
:101DE000E9FFF450EA26000EE926030EEA220A0E65
:101DF000E926000EEA22EFCF10F0060E105C01E299
:101E00007BD0DF50E96EEA6A5D0EEA02F3CFEAFFAB
:101E1000E950EA265D0EE902F3CFE9FFF450EA2625
:101E2000000EE926030EEA22080EE926000EEA2239
:101E3000EF2ADF50E96EEA6A5D0EEA02F3CFEAFFAD
:101E4000E950EA265D0EE902F3CFE9FFF450EA26F5
:101E5000000EE926030EEA22080EE926000EEA2209
:101E6000EFCF10F0DF50E96EEA6A5D0EEA02F3CFC1
:101E7000EAFFE950EA265D0EE902F3CFE9FFF450EC
:101E8000EA26000EE926030EEA22050EE926000ED8
:101E9000EA22EF50105C18E3DF50E96EEA6A5D0E4B
:101EA000EA02F3CFEAFFE950EA265D0EE902F3CF3A
:101EB000E9FFF450EA26000EE926030EEA22080E96
:101EC000E926000EEA22EF6ADF50E96EEA6A5D0E4B
:101ED000EA02F3CFEAFFE950EA265D0EE902F3CF0A
:101EE000E9FFF450EA26000EE926030EEA220A0E64
:101EF000E926000EEA22EF6A9D90DF50E96EEA6A59
:101F00005D0EEA02F3CFEAFFE950EA265D0EE90230
:101F1000F3CFE9FFF450EA26000EE926030EEA2289
:101F2000090EE926000EEA22010EEF6E9D80DF2ADF
:101F300098EF0AF0050EE15C02E2E16AE552E16E1B
:101F4000E552E7CFD9FF1200D9CFE6FFE1CFD9FFA5
:101F5000040EE1268392839483968398839A839CCC
:101F6000839E020EDB6A020EF36E020EDBCFF4FFDD
:101F7000F350F45C01E3B5D0030EDB6A020EDB50D4
:101F8000E96EEA6A5D0EEA02F3CFEAFFE950EA265B
:101F90005D0EE902F3CFE9FFF450EA26000EE926D0
:101FA000030EEA22020EE926000EEA22EF50F36E3B
:101FB000030EDBCFF4FFF350F45C01E38FD0020E8D
:101FC000DB50E96EEA6A5D0EEA02F3CFEAFFE95000
:101FD000EA265D0EE902F3CFE9FFF450EA26000E8F
:101FE000E926030EEA220D0EE926000EEA22E9CFC9
:101FF00014F0EACF15F0020EDB50E96EEA6A5D0ECE
:10200000EA02F3CFEAFFE950EA265D0EE902F3CFD8
:10201000E9FFF450EA26000EE926030EEA220C0E30
:10202000E926000EEA22EF50700D1450F324126ED0
:102030001550F420136E0501BA51100D1250F324FF
:10204000106E1350F420116E030EDB500F0110249C
:10205000E96E000E1120EA6EEFCFDFFF030EDBCF3B
:10206000E6FF020EDB50E96EEA6A5D0EEA02F3CF8C
:10207000EAFFE950EA265D0EE902F3CFE9FFF450EA
:10208000EA26000EE926030EEA22EE52EF50E55250
:10209000E724E76E010EE7CFDBFF400EF36E010E83
:1020A000DBCFF4FFF350F45C0AE3800E106E010EF8
:1020B000DBCFE7FF1050E726010EE7CFDBFF010E75
:1020C000DB50846EDF1C806E8590080EE66E6FEC30
:1020D00021F0E5528580030EDB2A50D7020EDB2A61
:1020E00042D70501BA51060A3DE0030A33E0010A6E
:1020F00029E0070A1FE0010A15E0030A0BE0010AC4
:1021000001E038D08382839483968398839A839C5A
:10211000839E31D08392838483968398839A839C11
:10212000839E29D08392839483868398839A839C09
:10213000839E21D08392839483968388839A839C01
:10214000839E19D08392839483968398838A839CF9
:10215000839E11D08392839483968398839A838CF1
:10216000839E09D08392839483968398839A839CD9
:10217000838E01D000D00501BA2B070E0501BA5D90
:1021800001E27BD00501BA6B020EDB6A020EF36E30
:10219000020EDBCFF4FFF350F45C6FE2020EDB5073
:1021A000E96EEA6A5D0EEA02F3CFEAFFE950EA2639
:1021B0005D0EE902F3CFE9FFF450EA26000EE926AE
:1021C000030EEA22090EE926000EEA22EF0452E18C
:1021D000020EDB50E96EEA6A5D0EEA02F3CFEAFF17
:1021E000E950EA265D0EE902F3CFE9FFF450EA2652
:1021F000000EE926030EEA220C0EE926000EEA2262
:10220000EF5002E1010E01D0000EE66E020EDB502F
:10221000E96EEA6A5D0EEA02F3CFEAFFE950EA26C8
:102220005D0EE902F3CFE9FFF450EA26000EE9263D
:10223000030EEA220C0EE926000EEA22E552E750D0
:10224000EF6E020EDB50E96EEA6A5D0EEA02F3CF32
:10225000EAFFE950EA265D0EE902F3CFE9FFF45008
:10226000EA26000EE926030EEA22090EE926000EF0
:10227000EA22EF6A020EDB2A89D7040EE15C02E251
:10228000E16AE552E16EE552E7CFD9FF1200D9CFFE
:10229000E6FFE1CFD9FF400EF36EFE0EDBCFF4FF79
:1022A000F350F45C0AE3800E106EFE0EDBCFE7FF06
:1022B0001050E726FE0EE7CFDBFF8580FE0EDB50D9
:1022C000846EFD0EDB50806E8590500EE66E6FECD6
:0E22D00021F0E5528580E552E7CFD9FF1200DC
:0222DE00DACF55
:1022E000E4FFE2CFDAFFE9CFE4FFEACFE4FFF6CF85
:1022F000E4FFF7CFE4FFF5CFE4FFF3CFE4FFF4CF43
:10230000E4FFFACFE4FF00EE00F0100EE80403E370
:10231000EECFE4FFFBD700EE10F00A0EE80403E373
:10232000EECFE4FFFBD7E652D9CFE6FFE1CFD9FFEE
:10233000E652A3EC20F0DF6E02013F513F2BEA6A28
:10234000420FE96E020EEA22DFCFEFFF3C0E0201E0
:102350003F5D02E302013F6B0201412B9E9AE55271
:10236000E552E7CFD9FFE55200EE19F00A0EE80476
:1023700003E3E5CFEDFFFBD700EE0FF0100EE8040E
:1023800003E3E5CFEDFFFBD7E5CFFAFFE5CFF4FFA1
:10239000E5CFF3FFE5CFF5FFE5CFF7FFE5CFF6FF9C
:1023A000E5CFEAFFE5CFE9FFE5CFDAFF11003C0E0C
:1023B00002013F5D02E302013F6B3C0E0201BD5D85
:1023C00002E30201BD6B1200DACFE4FFE2CFDAFFD5
:1023D000E9CFE4FFEACFE4FFF6CFE4FFF7CFE4FF75
:1023E000F5CFE4FFF3CFE4FFF4CFE4FFFACFE4FF4F
:1023F00000EE00F0100EE80403E3EECFE4FFFBD79D
:1024000000EE10F00A0EE80403E3EECFE4FFFBD782
:10241000E652D9CFE6FFE1CFD9FFE65284EC20F0B7
:10242000DF6E0201BD51BD2BEA6AC00FE96E020EDC
:10243000EA22DFCFEFFF3C0E0201BD5D02E30201A5
:10244000BD6B0201BF2BA49AE552E552E7CFD9FF3D
:10245000E55200EE19F00A0EE80403E3E5CFEDFFC4
:10246000FBD700EE0FF0100EE80403E3E5CFEDFF1D
:10247000FBD7E5CFFAFFE5CFF4FFE5CFF3FFE5CFDC
:10248000F5FFE5CFF7FFE5CFF6FFE5CFEAFFE5CFB4
:10249000E9FFE5CFDAFF1100DACFE4FFE2CFDAFFA0
:1024A000E9CFE4FFEACFE4FFE652D9CFE6FFE1CF80
:1024B000D9FFE6520201025105E1ACA2FED7869691
:1024C000AC9A21D002010151EA6A030FE96E020EB3
:1024D000EA22EFCFDFFFDF50AD6E0201012B3C0E91
:1024E0000201015D02E30201016B000E0201E76ED1
:1024F0000219E8AE02D0023503D0E750D880025569
:1025000002E202010207E552E552E7CFD9FFE552A8
:10251000E5CFEAFFE5CFE9FFE5CFDAFF1100DACF3B
:10252000E4FFE2CFDAFFE9CFE4FFEACFE4FFE652CF
:10253000D9CFE6FFE1CFD9FFE6520201805105E194
:102540006CA2FED786986C9A21D002017F51EA6A6C
:10255000810FE96E020EEA22EFCFDFFFDF506D6ED2
:1025600002017F2B3C0E02017F5D02E302017F6BC3
:10257000000E0201E76E8019E8AE02D0803503D06C
:10258000E750D880805502E202018007E552E5520B
:10259000E7CFD9FFE552E5CFEAFFE5CFE9FFE5CF89
:1025A000DAFF1100D9CFE6FFE1CFD9FFE6527C0E6A
:1025B000DF6ED950FB0FE96EFF0EDA20EA6EEE2ACD
:1025C000000EEE22000EEE22000EEE22D950FB0F7E
:1025D000E96EFF0EDA20EA6E040EE76ED890EF3651
:1025E000010EEB36020EEB36030EEB36E706F6E194
:1025F000106A480E116EE80E126E010E136E10C0B6
:1026000004F011C005F012C006F013C007F0FB0E75
:10261000DBCF09F0FC0EDBCF0AF0FD0EDBCF0BF0B9
:10262000FE0EDBCF0CF01EEC20F0FB0E04C0DBFF37
:10263000FC0E05C0DBFFFD0E06C0DBFFFE0E07C073
:10264000DBFFFB0EDBCFE6FFFC0EDBCFE6FFDFCFD1
:10265000E6FF72EC1FF0E552E552E552AB8EAC8A14
:10266000AC9E9D8A9F8AE552E552E7CFD9FF1200C2
:10267000D9CFE6FFE1CFD9FFE6527C0EDF6ED9500D
:10268000FB0FE96EFF0EDA20EA6EEE2A000EEE2254
:10269000000EEE22000EEE22D950FB0FE96EFF0E67
:1026A000DA20EA6E040EE76ED890EF36010EEB36B4
:1026B000020EEB36030EEB36E706F6E1106A480E23
:1026C000116EE80E126E010E136E10C004F011C0F0
:1026D00005F012C006F013C007F0FB0EDBCF09F0C7
:1026E000FC0EDBCF0AF0FD0EDBCF0BF0FE0EDBCFD6
:1026F0000CF01EEC20F0FB0E04C0DBFFFC0E05C04E
:10270000DBFFFD0E06C0DBFFFE0E07C0DBFFFB0E8E
:10271000DBCFE6FFFC0EDBCFE6FFDFCFE6FF2DECE5
:102720001FF0E552E552E552D08E6B8E6C8A6C9E9E
:10273000A38AA58AE552E552E7CFD9FF1200D9CF87
:10274000E6FFE1CFD9FFACA2FED702010051002B7A
:10275000EA6A030FE96E020EEA22FE0EDBCFEFFFFC
:102760000201022B3C0E0201005D02E30201006B3C
:10277000010E00D0E552E7CFD9FF1200D9CFE6FF16
:10278000E1CFD9FF6CA2FED702017E517E2BEA6A0F
:10279000810FE96E020EEA22FE0EDBCFEFFF02018F
:1027A000802B3C0E02017E5D02E302017E6B010E76
:1027B00000D0E552E7CFD9FF1200D9CFE6FFE1CF35
:1027C000D9FF060EE1268686010EF36E020EF3CFC8
:1027D000DBFF030EDB6A020EDBCF10F0DB06030E1D
:1027E000DBCF11F001E2DB061050111006E0080EFD
:1027F000E66E32EC21F0E552EED7000E0201E76EF4
:102800000219E8AE02D0023503D0E750D880025555
:1028100028E202010151EA6A030FE96E020EEA2280
:10282000010EEFCFDBFFACA2FED7010EDB50AD6E89
:10283000ACA2FED70201012B3C0E0201015D02E3B6
:102840000201016B000E0201E76E0219E8AE02D030
:10285000023503D0E750D880025502E20201020798
:10286000CCD78696010EF36E040EF3CFDBFF050E78
:10287000DB6A040EDBCF10F0DB06050EDBCF11F0B8
:1028800001E2DB061050111006E0080EE66E32EC95
:1028900021F0E552EED7106E060EE15C02E2E16A2D
:1028A000E552E16E1050E552E7CFD9FF1200D9CFC3
:1028B000E6FFE1CFD9FF060EE1268688010EF36E12
:1028C000020EF3CFDBFF030EDB6A020EDBCF10F04C
:1028D000DB06030EDBCF11F001E2DB061050111016
:1028E00006E0080EE66E32EC21F0E552EED7000E5F
:1028F0000201E76E8019E8AE02D0803503D0E750C0
:10290000D880805528E202017F51EA6A810FE96E82
:10291000020EEA22010EEFCFDBFF6CA2FED7010E02
:10292000DB506D6E6CA2FED702017F2B3C0E0201C4
:102930007F5D02E302017F6B000E0201E76E8019EA
:10294000E8AE02D0803503D0E750D880805502E24F
:1029500002018007CCD78698010EF36E040EF3CFE8
:10296000DBFF050EDB6A040EDBCF10F0DB06050E85
:10297000DBCF11F001E2DB061050111006E0080E6B
:10298000E66E32EC21F0E552EED7106E060EE15CF9
:1029900002E2E16AE552E16E1050E552E7CFD9FF5D
:1029A0001200D9CFE6FFE1CFD9FFE652DF6AA39A42
:1029B000000E0201E76EBF19E8AE02D0BF3503D0AA
:1029C000E750D880BF5502E2010EDF6EA38ADF50C8
:1029D00000D0E552E552E7CFD9FF1200D9CFE6FF8C
:1029E000E1CFD9FFE652DF6A9D9A000E0201E76E41
:1029F0004119E8AE02D0413503D0E750D8804155A7
:102A000002E2010EDF6E9D8ADF5000D0E552E552F2
:102A1000E7CFD9FF1200D9CFE6FFE1CFD9FFE652C9
:102A20009D9A02014051402BEA6A420FE96E020E64
:102A3000EA22EFCFDFFF3C0E0201405D02E302011C
:102A4000406B000E0201E76E4119E8AE02D041353D
:102A500003D0E750D880415502E2020141079D8A28
:102A6000DF5000D0E552E552E7CFD9FF1200D9CFB1
:102A7000E6FFE1CFD9FFE652A39A0201BE51BE2B79
:102A8000EA6AC00FE96E020EEA22EFCFDFFF3C0ECA
:102A90000201BE5D02E30201BE6B000E0201E76EA1
:102AA000BF19E8AE02D0BF3503D0E750D880BF557C
:102AB00002E20201BF079D8ADF5000D0E552E552D5
:062AC000E7CFD9FF120070
:0A2AC600D9CFE6FFE1CFD9FF020EE1
:102AD000E126FE0EDBCF61F0FD0EDBCF62F0FC0ED7
:102AE000DBCF63F0FB0EDBCF64F0F90EDBCFE1F060
:102AF000FA0EDBCFE2F00AD8020EE15C02E2E16AF4
:102B0000E552E16EE552E7CFD9FF1200E66A4B0EBF
:102B1000E66EE66AE66AD2EC12F0E552E552E5525C
:102B2000E552E66A4B0EE66EE66AE66A38EC13F0AA
:102B3000E552E552E552E5520001DD6B0001DE6B26
:102B40000001010E606F0001DF6B0001E069E7C06A
:102B5000E3F0E8C0E4F0E9C0E5F0EAC0E6F060C008
:102B6000EBF012000001DD6B0001DE6B0001010ED5
:102B7000606F0001DF6B0001E069E7C0E3F0E8C0CF
:102B8000E4F0E9C0E5F0EAC0E6F060C0EBF0120066
:102B9000D9CFE6FFE1CFD9FF060EE126DF6A9DEC33
:102BA0001CF0F3CFE7F0F4CFE8F00001E96BEA6B3B
:102BB000E8AF02D0E969EA69ABA207D0AB98080E8A
:102BC000E66E6FEC21F0E552AB886BA207D06B98F4
:102BD000080EE66E6FEC21F0E5526B88E30EE96EAD
:102BE000000EEA6EEE500001E7190CE1EE50000114
:102BF000E81908E1EE500001E91904E1EE50000186
:102C0000EA1900E118E0000160510001EB5D0BE101
:102C1000020E0001605D07E10001E0070001E051E4
:102C200002E174DFE7D0E7C0E3F0E8C0E4F0E9C018
:102C3000E5F0EAC0E6F000016051030A01E1D3D0FB
:102C4000010A1CE0030A01E0D1D0EEEC14F0000907
:102C500001E1D0D00BEC15F0DF6EDFCFE6FFBEEC6C
:102C600013F0E55257EC14F000016151DF5C05E10F
:102C70000001DD6B0001020E606FBAD0EEEC14F0C3
:102C8000000901E1B7D00BEC15F0DF6EDFCFE6FFF6
:102C9000BEEC13F0E55257EC14F000016251DF5C1A
:102CA00001E083D0020EDB6A030EDB68D950030F0C
:102CB000E66E000EDA20E66EA7D8E552E552E76E22
:102CC000020EE7CFDBFF020EDB50020A5EE0030AD2
:102CD00005E0010A01E064D045DF8CD00001E1513C
:102CE000E21151E0D950040FE66E000EDA20E66ED4
:102CF000DF0EE66E000EE66E670EE66E000EE66E06
:102D000005D0E2C0FAFF0001E151F96EFADF106E62
:102D1000060EE15E10500001DE6FFF0E0001DF5D68
:102D200002E120DF67D00001010EA16F0001DE2B60
:102D3000DFC0A2F00001DE2BDE52020EDD6E0001CC
:102D4000DE51F36E010EDBCFF4FFF350F45C1AE2B8
:102D5000040EDBCFE9FF050EDBCFEAFFEF50E66E96
:102D6000010EDB50EA6AA10FE96E000EEA22E5527D
:102D7000E750EF6E040EDB2A050E01E3DB2A010E9D
:102D8000DB2ADDD701D0EEDE0CD00001010EA16FF1
:102D90000001DE2B030EDBCFA2F00001DE2B01D001
:102DA00000D00001030E606F1DD00001DD51DD2B4E
:102DB000EA6A650FE96E000EEA22DFCFEFFF00013D
:102DC000E06B3C0E0001DD5D0DE30001010EA16F23
:102DD0000001DE2B0001F00EA26F0001DE2B0001CE
:102DE000030E606F05D060D8BDDE02D0BBDE00D020
:102DF00060C0EBF0060EE15C02E2E16AE552E16ED2
:102E0000E552E7CFD9FF1200D9CFE6FFE1CFD9FFD6
:102E1000020EE1260001DD05EA6A650FE96E000E8B
:102E2000EA22EFCFDFFF010EDB6A0001650506E055
:102E3000FF0E0001655D02E0000E2AD00001DD05F5
:102E4000E66E650EE66E000EE66E9CD8E552E55223
:102E5000E552E76E010EE7CFDBFF010EDB50DF5CD2
:102E60000DE10001DD070001DD51EA6A650FE96E41
:102E7000000EEA22EF6A010E0BD00AD0FD0EDBCF66
:102E8000E9FFFE0EDBCFEAFFF10EEF6E020E00D07F
:102E9000106E020EE15C02E2E16AE552E16E105052
:102EA000E552E7CFD9FF1200D9CFE6FFE1CFD9FF36
:102EB000020EE126DF6A010EDB6ADEC0E6FFA10E2C
:102EC000E66E000EE66E5ED8E552E552E552DF6E24
:102ED00063C0E6FF9FEC13F0E552010EDB6A0001D0
:102EE000DE51F36E010EDBCFF4FFF350F45C0FE222
:102EF000010EDB50EA6AA10FE96E000EEA22EF50E4
:102F0000E66E9FEC13F0E552010EDB2AE8D7DFCF27
:102F1000E6FF9FEC13F0E55264C0E6FF9FEC13F070
:102F2000E552DDEC13F0020EE15C02E2E16AE552EB
:102F3000E16EE552E7CFD9FF1200D9CFE6FFE1CF2E
:102F4000D9FFFD0EDBCFF6FFFE0EDBCFF7FF08004B
:102F5000F55012E0FD0EDBCFF6FFFE0EDBCFF7FFE4
:102F60000800F550E66E9FEC13F0E552FD0EDB2AEB
:102F7000FE0E01E3DB2AE5D7DDEC13F0E552E7CFE7
:102F8000D9FF1200D9CFE6FFE1CFD9FF030EE1262A
:102F9000DF6A010EDB6AFC0EDB50F36E010EDBCF45
:102FA000F4FFF350F45C12E2010EDB50E76EFD0E0D
:102FB000DBCFE9FFFE0EDBCFEAFFE750E926000E8C
:102FC000EA22EF50DF1A010EDB2AE5D7DF5000D0EE
:102FD000106E030EE15C02E2E16AE552E16E105010
:102FE000E552E7CFD9FF1200D9CFE6FFE1CFD9FFF5
:102FF0001C0EE126DF6AD950010FE96EDACFEAFF35
:10300000EE6AEE6AEE6AEE6AEE6AEE6AEE6AEE6A00
:10301000EE6AEE6AEE6AEE6AEE6AEE6AEE6AEE6AF0
:10302000EE6AEE6AEE6AEE6AEE6AEE6AEE6AEE6AE0
:10303000190EDB6AD9CF10F0DACF11F0190EDBCF01
:10304000F3FFDB2AF3500F011024E96E000E11206C
:10305000EA6EAA0EEF6EFE0EDB50020FE66ED9CFBF
:1030600010F0DACF11F0190EDBCFF3FFDB2AF350AB
:103070000F011024E96E000E1120EA6EE552E750B0
:10308000EF6ED9CF10F0DACF11F0190EDBCFF3FFCE
:10309000DB2AF3500F011024E96E000E1120EA6EB6
:1030A000FA0EDBCFEFFFD9CF10F0DACF11F0190E07
:1030B000DBCFF3FFDB2AF3500F011024E96E000E83
:1030C0001120EA6EFD0EDBCFEFFF1A0EDB6AFA0E5F
:1030D000DB50F36E1A0EDBCFF4FFF350F45C26E204
:1030E0001A0EDB50E76EFB0EDBCFE9FFFC0EDBCFE9
:1030F000EAFFE750E926000EEA22EF50E66ED9CF4C
:1031000010F0DACF11F01A0EDBCFE6FF190EDB500C
:10311000E552E7240F011024E96E000E1120EA6E3B
:10312000E552E750EF6E1A0EDB2AD1D7190EDBCF2E
:10313000E7FF1A0EDB50E726190EE7CFDBFF190E6B
:10314000DB04E66ED950010FE66E000EDA20E66E63
:1031500019DFE552E552E552E76E1B0EE7CFDBFFC4
:103160001B0EDB50AA0804E01B0EDB50BB0814E169
:10317000020EDB2A190EDB04E66ED950010FE66E53
:10318000000EDA20E66EFEDEE552E552E552E76E0D
:103190001B0EE7CFDBFFE4D7D9CF10F0DACF11F069
:1031A000190EDBCFF3FFDB2AF3500F011024E96E79
:1031B000000E1120EA6E1B0EDBCFEFFFD9CF10F00F
:1031C000DACF11F0190EDBCFF3FFDB2AF3500F013A
:1031D0001024E96E000E1120EA6EBB0EEF6E1A0E7F
:1031E000DB6A190EDB50F36E1A0EDBCFF4FFF350DF
:1031F000F45C14E2D9CF10F0DACF11F01A0EDB50E4
:103200000F011024E96E000E1120EA6EEF50E66EF9
:103210009FEC13F0E5521A0EDB2AE3D7DDEC13F036
:103220001C0EE15C02E2E16AE552E16EE552E7CF95
:04323000D9FF1200B0
:0C3234000000000000000000202020200E
:103240000000200050505000000000005050F85086
:10325000F85050002078A07028F02000C0C810203E
:10326000409818006090A040A8906800602040003E
:1032700000000000102040404020100040201010AE
:10328000102040000020A870A8200000002020F896
:103290002020000000000000301020000000007C12
:1032A0000000000000000000006060000008102026
:1032B00040800000708898A8C88870002060A02016
:1032C0002020F800708808102040F800F810201026
:1032D0000888700010305090F8101000F880F00846
:1032E0000808F000304080F088887000F80810204E
:1032F00040404000708888708888700070888878A6
:103300000810600000606000606000000060600005
:103310006020400008102040201008000000F80045
:10332000F8000000402010081020400070880810AD
:103330002000200070880868A8A87000205088F835
:1033400088888800F08888F08888F00070888080FD
:1033500080887000E09088888890E000F88080F095
:103360008080F800F88080F080808000708880B8CD
:1033700088887800888888F888888800F820202045
:103380002020F80038101010109060008890A0C025
:10339000A0908800808080808080F80088D8A8A8CD
:1033A000888888008888C8A8988888007088888855
:1033B00088887000F08888F0808080007088888815
:1033C000A8906800F08888F0A090880078808070CD
:1033D0000808F000F8202020202020008888888815
:1033E000888870008888888888502000888888A805
:1033F000A8A8500088885020508888008888885065
:1034000020202000F80810204080F8007040404044
:10341000404070008850F820F820200070101010F4
:103420001010700020508800000000000000000014
:103430000000F800402010000000000000007008AC
:10344000788878008080B0C88888F000000070809C
:103450008088700008086898888878000000708864
:10346000F8807000304840E0404040000078888894
:10347000780870008080B0C88888880020006020AC
:1034800020207000080008080848300040404850DC
:103490006050480060202020202070000000D0A84C
:1034A000A88888000000B0C888888800000070885C
:1034B000888870000000F088F08080000000689824
:1034C000780808000000B0C880808000000070808C
:1034D0007008F0004040E04040483000000088881C
:1034E000889868000000888888502000000088883C
:1034F000A8A850000000885020508800000088884C
:10350000780870000000F8102040F80010202040DB
:103510002020100020202020202020002010100833
:1035200010102000002010F810200000002040F8AB
:10353000402000003048483000000000304848304B
:103540000000000008183878381808000404040443
:1035500004040400FFFFFFFFFFFFFF00000404005E
:103560000404000000808000808000008080808053
:1035700080808000C0C0C0C0C0C0C000E0E0E0E00B
:10358000E0E0E000F0F0F0F0F0F0F000F8F8F8F82B
:10359000F8F8F800FCFCFCFCFCFCFC00FDFDFDFD6B
:1035A000FDFDFD002070F87070707000304884845C
:1035B00084483000844830303048840000704870BF
:1035C000404000000030407010600000004040406B
:1035D0004078000000008005C004E003F002F8011C
:0C35E00000000804180338027801F8000D
:0435EC00DACFE4FF4F
:1035F000E2CFDAFFE9CFE4FFEACFE4FFF6CFE4FF62
:10360000F7CFE4FFF5CFE4FFF3CFE4FFF4CFE4FF1F
:10361000FACFE4FF00EE00F0100EE80403E3EECF73
:10362000E4FFFBD700EE10F00A0EE80403E3EECF50
:10363000E4FFFBD7E652F2940101292B000E2A2366
:1036400001012B2B000E2C2301012D2B000E2E230C
:1036500001012F2B000E302301013107000E325BD8
:103660000101323504E231510008000E32550AE3FF
:103670000101332B000E342335233623C80E0101FC
:10368000316F326B01011D511E1107E005D01EC1C3
:10369000FAFF01011D51F96EFADF1BC1E6FF1CC1E3
:1036A000E6FFFAEC20F0E552E552E55200EE19F0A3
:1036B0000A0EE80403E3E5CFEDFFFBD700EE0FF0C1
:1036C000100EE80403E3E5CFEDFFFBD7E5CFFAFFEB
:1036D000E5CFF4FFE5CFF3FFE5CFF5FFE5CFF7FF4B
:1036E000E5CFF6FFE5CFEAFFE5CFE9FFE5CFDAFF6B
:1036F0001100DACFE4FFE2CFDAFFE9CFE4FFEACF4F
:10370000E4FFF6CFE4FFF7CFE4FFF5CFE4FFF3CF1C
:10371000E4FFF4CFE4FFFACFE4FF00EE00F0100E78
:10372000E80403E3EECFE4FFFBD700EE10F00A0E4F
:10373000E80403E3EECFE4FFFBD7E6529E901FC1FF
:10374000E6FF20C1E6FFDEEC20F0E552E552010184
:103750002151221107E005D022C1FAFF01012151B8
:10376000F96EFADFE55200EE19F00A0EE80403E301
:10377000E5CFEDFFFBD700EE0FF0100EE80403E3FA
:10378000E5CFEDFFFBD7E5CFFAFFE5CFF4FFE5CFBF
:10379000F3FFE5CFF5FFE5CFF7FFE5CFF6FFE5CF88
:1037A000EAFFE5CFE9FFE5CFDAFF1100DACFE4FF6A
:1037B000E2CFDAFFE9CFE4FFEACFE4FFF6CFE4FFA0
:1037C000F7CFE4FFF5CFE4FFF3CFE4FFF4CFE4FF5E
:1037D000FACFE4FF00EE00F0100EE80403E3EECFB2
:1037E000E4FFFBD700EE10F00A0EE80403E3EECF8F
:1037F000E4FFFBD7E652A19223C1E6FF24C1E6FF16
:10380000DEEC20F0E552E55201012551261107E0DA
:1038100005D026C1FAFF01012551F96EFADFE55204
:1038200000EE19F00A0EE80403E3E5CFEDFFFBD745
:1038300000EE0FF0100EE80403E3E5CFEDFFFBD739
:10384000E5CFFAFFE5CFF4FFE5CFF3FFE5CFF5FFD6
:10385000E5CFF7FFE5CFF6FFE5CFEAFFE5CFE9FFDC
:10386000E5CFDAFF1100D9CFE6FFE1CFD9FF9F0EF8
:10387000E66E16EC21F0E552FD0EDBCF1BF1FE0EDD
:10388000DBCF1CF1FB0EDBCF1DF1FC0EDBCF1EF1FD
:10389000FD0EDBCFE6FFFE0EDBCFE6FFFAEC20F0FD
:1038A000E552E552E552E7CFD9FF1200D9CFE6FF46
:1038B000E1CFD9FFC50EE66E63EC20F0E552FD0EB8
:1038C000DBCFE6FFFE0EDBCFE6FFDEEC20F0E552BD
:1038D000E5529F80FD0EDBCF1FF1FE0EDBCF20F106
:1038E000FB0EDBCF21F1FC0EDBCF22F1E552E7CF5F
:1038F000D9FF1200D9CFE6FFE1CFD9FFCD0EE66E9A
:1039000042EC20F0E552FD0EDBCFE6FFFE0EDBCFF2
:10391000E6FFC2EC20F0E552E552FD0EDBCF23F1CD
:10392000FE0EDBCF24F1FB0EDBCF25F1FC0EDBCF4F
:1039300026F1E552E7CFD9FF1200D9CFE6FFE1CF5C
:10394000D9FF040EE126F29A33C1DFFF010E34C124
:10395000DBFF020E35C1DBFF030E36C1DBFFF28A4F
:10396000DECF04F0DECF05F0DECF06F0DDCF07F0CE
:10397000DD52DD5200D0040EE15C02E2E16AE55264
:10398000E16EE552E7CFD9FF1200F29E0101336BE1
:0A399000346B356B366BF28E1200BB
:06399A00D9CFE6FFE1CFEA
:1039A000D9FFE652DF6ADFCFE6FFE66AF0EC1FF0F0
:1039B000E552E552E66EDF50EA6A000FE96E010E4D
:1039C000EA22E552E750EF6E7AEC21F0DF50DF2A71
:1039D000EA6A000FE96E010EEA22EF50E4E1E66ABE
:1039E000F2EC08F0E5520101156B0101100E166FA3
:1039F000000EE66E010EE66E1FEC1FF0E552E5527A
:103A0000F3CF19F10101000E176F010E186F0101BC
:103A1000030E1A6F150EE66E010EE66EE66A51ECA5
:103A200002F0E552E552E552E552E552E7CFD9FF03
:103A30001200D9CFE6FFE1CFD9FFE652010114050C
:103A40002FE10101146BDF6ADFCF10F010C0E6FF39
:103A5000000EE66E010EE66E1FEC1FF0E552E55219
:103A6000E552E7CF10F0F3CF11F0F4CF12F0105081
:103A7000115C000E125814E3DF50EA6A000FE96E81
:103A8000010EEA22EF50E66EDFCFE6FFE66AB4EC05
:103A90001FF0E552E552E5527AEC21F0DF2AD4D747
:103AA000E552E552E7CFD9FF1200D9CFE6FFE1CFCB
:103AB000D9FF030EE126FD0EDBCFE9FFFE0EDBCFC3
:103AC000EAFF010EEFCFDBFF020EDB6A010EDB50D7
:103AD000800A01E04BD00101010E146F010EE76E68
:103AE000FD0EDBCF10F0FE0EDBCF11F0E7501026FD
:103AF000000E112210C0E6FF11C0E6FF000EE66EB8
:103B0000010EE66EFEEC1EF0E552E552E552E5527E
:103B1000E66AF2EC08F0E5520101156B0101100EA6
:103B2000166F000EE66E010EE66E1FEC1FF0E552FA
:103B3000E552F3CF19F10101000E176F010E186F56
:103B40000101030E1A6F150EE66E010EE66EE66AAF
:103B500051EC02F0E552E552E552FB0EDBCFE9FFF6
:103B6000FC0EDBCFEAFF800EEF6E01D000D0020E1C
:103B7000DB5000D0106E030EE15C02E2E16AE55218
:0C3B8000E16E1050E552E7CFD9FF1200B3
:043B8C00D9CFE6FFA8
:103B9000E1CFD9FF040EE126700ED36E050EDE6E66
:103BA000DD6ADFCF10F0DF06010EDBCF11F001E29E
:103BB000DB061050111006E0080EE66E32EC21F024
:103BC000E552EFD7C26A0F0EC16EB50EC06E800E01
:103BD0009C6E9890869098968696989886989892DB
:103BE0009884949C948E9496949897908580926AE9
:103BF000966A846A95928392959483949596839617
:103C000095988398959A839A959C839C959E839E7C
:103C1000816899909992999499969B8C640EF36E11
:103C2000020EF3CFDBFF030EDB6A020EDBCF10F0D8
:103C3000DB06030EDBCF11F001E2DB0610501110A2
:103C400006E0080EE66E32EC21F0E552EED7040EE7
:103C5000E15C02E2E16AE552E16EE552E7CFD9FFAD
:023C6000120050
:0E3C6200D9CFE6FFE1CFD9FF030EE126020E17
:103C7000DB6AC6EC1DF052EC21F097EC00F0AA0EC6
:103C8000E66E3A0EE66EDD0EE66ECC0EE66EBB0E0E
:103C9000E66EAA0EE66E63EC15F0106E060EE15E9F
:103CA0001050CDEC1CF0000EE66EE66A7F0EE66E5C
:103CB000C10EE66E33EC1CF0E552E552E552E552DA
:103CC000480EE66E1F0EE66EDF0EE66EB10EE66E75
:103CD00056EC1CF0E552E552E552E55211EC00F0CD
:103CE0000101FA0E295D000E2A5907E319EC1DF0B7
:103CF00055EC21F00101296B2A6B01010A0E2F5DA1
:103D0000000E305905E391EC0AF001012F6B306B86
:103D1000C8EC15F0E5D7030EE15C02E2E16AE5527A
:0A3D2000E16EE552E7CFD9FF120073
:063D2A002A0EF66E000EE9
:103D3000F76E000EF86E00010900F550F16F0900F2
:103D4000F550F26F03E1F16701D03DD00900F55065
:103D5000EC6F0900F550ED6F0900F550EE6F0900AA
:103D60000900F550E96E0900F550EA6E09000900F6
:103D70000900F550EF6F0900F550F06F09000900D8
:103D8000F6CFF3F0F7CFF4F0F8CFF5F0ECC0F6FF94
:103D9000EDC0F7FFEEC0F8FF0001EF5302E1F05372
:103DA00007E00900F550EE6EEF07F8E2F007F9D7EB
:103DB000F3C0F6FFF4C0F7FFF5C0F8FF0001F1070C
:083DC000000EF25BBFD71200F8
:083DC800FE0EE3CFE9FFFF0E40
:103DD000E3CFEAFFE9CFF3FFEACFF4FFFB0EE350B6
:103DE00003E1FC0EE35009E0FB0EE30602E2FC0EE9
:103DF000E306FD0EE350EE6EF1D71200D9CFE6FFD9
:103E0000DACFE6FFFA0EE3CFD9FFFB0EE3CFDAFFFE
:103E1000FC0EE3CFE9FFFD0EE3CFEAFFE9CFF3FFAE
:103E2000EACFF4FFDECFEFFFEE66FCD7FF0EE3CF65
:103E3000DAFFE552FF0EE3CFD9FFE5521200FE0E86
:103E4000E3CFE9FFFF0EE3CFEAFFF36AF46AEE5235
:0A3E500003E0F34AF42AFBD7120046
:063E5A00D9CFE6FFDACF2C
:103E6000E6FFE1CFD9FFE2CFDAFF6C6A6B6AFD0EA5
:103E7000DBB06C88DBA202D06C8C6B8CDBB46C8EFC
:103E8000DBA602D06B8801D06B8ADBA802D06C84E1
:103E900001D06C94DBBA6B86DBAC02D0A38A01D074
:103EA000A39ADBAE02D0A38801D0A398FB0EDB500F
:103EB0006F6EFC0EDBCF11F011C010F0116A1050C4
:103EC0007D6E6C8A6B8E989298846C50100B04E017
:103ED0006C50800B01E19882E552E5CFDAFFE7CF25
:043EE000D9FF1200F4
:0C3EE400D9CFE6FFDACFE6FFE1CFD9FF2F
:103EF000E2CFDAFFAC6AAB6AFD0EDBB0AC88DBA2C6
:103F000002D0AC8CAB8CDBB4AC8EDBA602D0AB8821
:103F100001D0AB8ADBB8AC84DBBAAB86DBAC02D0B9
:103F20009D8A01D09D9ADBAE02D09D8801D09D98DC
:103F3000FB0EDB50AF6EFC0EDBCF11F011C010F0AA
:103F4000116A10507F6EAC8AAB8E949C948EAC50EC
:103F5000100B04E0AC50800B01E1948CE552E5CFEE
:083F6000DAFFE7CFD9FF1200E0
:083F6800D9CFE6FFDACFE6FF36
:103F7000E1CFD9FFE2CFDAFFE652DF6AFD0EDBCFF9
:103F800011F011C010F0030E1114AA6EFF0EE76EAF
:103F9000FC0EDBCF10F0E7501016116A1050A96E1E
:103FA000FB0EDB50A86EA69EA69CA684F250800B4A
:103FB00001E0010EDF6EF29E550EA76EAA0EA76EEF
:103FC000A682A6B2FED7DF50E8B0F28EE8A0F29E3D
:103FD000A694E552E552E5CFDAFFE7CFD9FF12000C
:103FE000D9CFE6FFDACFE6FFE1CFD9FFE2CFDAFFA4
:103FF000FC0EDBCF10F0FD0EDBCF11F011C010F086
:10400000116A030E1014AA6EFF0EE76EFC0EDBCFD2
:1040100010F0FD0EDBCF11F0E7501016116A1050B2
:10402000A96EA69CA69EA68000000000A85000D005
:0C403000E552E5CFDAFFE7CFD9FF120020
:04403C00036A026AA7
:10404000016A006A200EE76ED890043605360636FF
:10405000073600360136023603360950005C0A5036
:1040600001580B5002580C50035809E30950005EE8
:104070000A50015A0B50025A0C50035A042AE72ED8
:04408000E4D712006F
:0C408400D9CFE6FFDACFE6FFE1CFD9FF8D
:10409000E2CFDAFFFD0EDB50360BB16EB36AB26AC7
:1040A000A192FD0EDBAE02D0A08201D0A092DBA0D7
:1040B00002D0B18E01D0B19EB180E552E5CFDAFFDA
:0640C000E7CFD9FF12005A
:0A40C600D9CFE6FFDACFE6FFE1CF25
:1040D000D9FFE2CFDAFFFD0EDB507E0BCD6EFD0E79
:1040E000DBAC02D0CD8E01D0CD9ECF6ACE6A9E9041
:1040F000DBAE02D09D8001D09D90CD80E552E5CF12
:08410000DAFFE7CFD9FF12003E
:08410800D9CFE6FFDACFE6FF94
:10411000E1CFD9FFE2CFDAFFE652F20E0201FE173D
:104120006BAC03D0FE916BB0FE816BB4FE856BB2BD
:10413000FE876E50DF6EDF50E552E552E5CFDAFFC5
:06414000E7CFD9FF1200D9
:0A414600D9CFE6FFDACFE6FFE1CFA4
:10415000D9FFE2CFDAFFE652F20E0201FF17ABAC55
:1041600003D0FF91ABB0FF81ABB4FF85ABB2FF874B
:10417000AE50DF6EDF50E552E552E5CFDAFFE7CF14
:04418000D9FF120051
:0C418400D9CFE6FFDACFE6FFE1CFD9FF8C
:10419000E2CFDAFFE652E652FC0EDBCFDEFFDBCFEA
:1041A000DDFF010EDB50B36EDF50B26EE552E5521B
:0C41B000E552E5CFDAFFE7CFD9FF12009F
:0441BC00D9CFE6FF72
:1041C000DACFE6FFE1CFD9FFE2CFDAFFE652E652DF
:1041D000FC0EDBCFDEFFDBCFDDFF010EDB50CF6E51
:1041E000DF50CE6EE552E552E552E5CFDAFFE7CF7C
:0441F000D9FF1200E1
:0C41F400D9CFE6FFDACFE6FFE1CFD9FF1C
:10420000E2CFDAFFE652E652FC0EDBCFDEFFDBCF79
:10421000DDFF010EDB50D76EDF50D66EE552E55262
:0C422000E552E5CFDAFFE7CFD9FF12002E
:04422C00D9CFE6FF01
:10423000DACFE6FFE1CFD9FFE2CFDAFFFD0EDB50A8
:104240007F0BD56ED76AD66AF294FD0EDBAE02D034
:10425000F28A01D0F29AD58EE552E5CFDAFFE7CFA8
:04426000D9FF120070
:0C426400FF0EE3501A6E480E01D04C0E05
:10427000E76EE72EFED7E76AE72EFED71A2EF7D7AE
:044280000000120028
:0C428400600EF36E00EE00F00F0E01D88B
:104290001200EA6002D0EE6AFCD7F350E960120027
:0442A000EE6AFCD7EF
:0C42A4000001F76B12000001F70504E1B7
:1042B0000001F76B869004D00001010EF76F868035
:0242C0001200EA
:0E42C2001EEE00F02EEE00F0F86A0F9C95EC58
:0E42D0001EF003EC00F031EC1EF0FBD71200E4
:0242DE00FF0ED1
:1042E000E350E84E1200000000D000D000D0E82ECD
:0442F000FAD71200E7
:0642F400A6B2FED7120085
:0542FA00434F4D0A00D6
:0142FF0000BE
:1043000000000000000000000000000000000000AD
:10431000000000000000000000000000000000009D
:10432000000000000000000000000000000000008D
:10433000000000000000000000000000000000007D
:10434000000000000000000000000000000000006D
:10435000000000000000000000000000000000005D
:10436000000000000000000000000000000000004D
:10437000000000000000000000000000000000003D
:10438000000000000000000000000000000000002D
:10439000000000000000000000000000000000001D
:1043A000000000000000000000000000000000000D
:1043B00000000000000000000000000000000000FD
:1043C00000000000000000000000000000000000ED
:1043D00000000000000000000000000000000000DD
:1043E00000000000000000000000000000000000CD
:0B43F0000000000000000000000000C2
:0543FB000000000000BD
:1044000000000000000000000000000000000000AC
:10441000000000000000000000000000000000009C
:10442000000000000000000000000000000000008C
:10443000000000000000000000000000000000007C
:0646B00000000000000004
:0A46B60000000000000000000000FA
:1046C00000000000000000000000000000000000EA
:1046D00000000000000000000000000000000000DA
:1046E00000000000000000000000000000000000CA
:1046F00000000000000000000000000000000000BA
:1047000000000000000000000000000000000000A9
:104710000000000000000000000000000000000099
:104720000000000000000000000000000000000089
:104730000000000000000000000000000000000079
:02474000000077
:0E474200000000000000000000000000000069
:0D475000000000000000000000000000005C
:03475D0000000059
:104760000000000000000000000000000000000049
:09477000000000C8000000000078
:01477900003F
:02477A00FFFF3F
:020000040030CA
:0100010008F6
:010002001BE2
:0100030012EA
:01000400F308
:010005008377
:010006008178
:01000800F106
:010009008076
:01000A00FFF6
:01000B00E014
:01000C00FFF4
:01000D0040B2
:00000001FF
